:020000040800F2
:1000000050090020FD010008592D0008A32B00080D
:10001000552D0008650A0008D932000800000000CC
:10002000000000000000000000000000912D00080A
:10003000AD0A0008000000001302000815020008C5
:10004000170200081702000817020008170200082C
:10005000170200081702000817020008170200081C
:10006000170200081702000817020008170200080C
:1000700017020008170200081702000817020008FC
:1000800017020008170200081702000817020008EC
:1000900017020008170200081702000817020008DC
:1000A00017020008170200081702000817020008CC
:1000B000952D000817020008170200081702000813
:1000C00017020008170200081702000817020008AC
:1000D00017020008B53200081702000817020008CE
:1000E000170200081702000817020008170200088C
:1000F000170200081702000817020008170200087C
:10010000170200081702000817020008170200086B
:10011000170200081702000817020008170200085B
:10012000170200081702000817020008170200084B
:1001300000F002F800F053F80AA090E8000C8244A6
:100140008344AAF10107DA4501D100F048F8AFF283
:10015000090EBAE80F0013F0010F18BFFB1A43F0A5
:1001600001031847CC370000EC370000103A24BFD9
:1001700078C878C1FAD8520724BF30C830C144BF0C
:1001800004680C607047000000230024002500264E
:10019000103A28BF78C1FBD8520728BF30C148BFEA
:1001A0000B60704703681B0A28BF41F08001642977
:1001B00000F07C80E42900F0B580732900F04082D3
:1001C000002070471FB500F065FB040000200021EF
:1001D00003F08CFB401C60601FBD10B510BD00F02B
:1001E00034FB1146FFF7EEFF03F096F900F064FBD5
:1001F00003B4FFF7F2FF03BC03F08CF80948804713
:1002000009480047FEE7FEE7FEE7FEE7FEE7FEE7F8
:10021000FEE7FEE7FEE7FEE704480549054A064B10
:1002200070470000932D00083101000850030020A2
:1002300050090020500500205005002070470000A4
:100240000FB4044910B503AA029800F0FDF910BCE0
:100250005DF814FB3000002070B50C460546012AFD
:1002600005D02878800600D5EA69002302E0012342
:1002700005E05B1C934202D2E05C0028F9D1A8693A
:10028000E618C01AA861286A184428622846AFF305
:10029000008004E0D5E9012114F8010B9047B44235
:1002A000F8D32846AFF3008070BD00002DE9F0417F
:1002B0000646002410687529314616A510D0AFF304
:1002C0000080002802DA404213A507E031688A075F
:1002D00001D512A502E0490704D511A5012401E0CA
:1002E000AFF3008000210A2206F1240709E0B0FBE9
:1002F000F2FCB0FBF2F302FB1C00303078541846DD
:10030000491C0028F3D123462A463046BDE8F04177
:1003100000F02BB9000000002D0000002B000000B1
:10032000200000002DE9F0418046D21D22F0070296
:100330000025D2E90002F52915A614D0011E72F19C
:10034000000106DA0023D0EB030063EB020211A6E2
:1003500008E0D8F800108B0701D50FA602E0490786
:1003600001D50EA601251146002408F1240704E05A
:1003700000F0B6F830323A55641C50EA0102F7D169
:100380002B46324621464046BDE8F04100F0EDB82C
:10039000000000002D0000002B00000020000000E5
:1003A0002DE9F0410F460546002028622846E968FD
:1003B000884770B3252805D0D5E901219047286AE0
:1003C000401CF2E7E9682846002688476C28044666
:1003D0000AD0682C08D04C2C35D06A2C31D0742C23
:1003E00031D07A2C2FD016E0E96806462846884797
:1003F000B042044608D16C2E23D04FF480662846C4
:10040000E9688847044606E06C2E03D04FF48076F6
:1004100001E01EE04026E4B1A4F14100192802D811
:10042000203446F400663A46214628462E60FFF7FF
:10043000B9FE60B1012808D0FF1D27F00707083773
:10044000B4E78026DBE70026D9E73F1DAEE720466C
:10045000B2E7286ABDE8F08170B5064600F03CF8C6
:100460000468054630460A22002100F0FFF82C609F
:1004700070BD0000014A00F031B900005C000020AE
:100480004FF0000200B5134694469646203922BF2D
:10049000A0E80C50A0E80C50B1F12001BFF4F7AF78
:1004A000090728BFA0E80C5048BF0CC05DF804EB5A
:1004B000890028BF40F8042B08BF704748BF20F8C8
:1004C000022B11F0804F18BF00F8012B70477047C6
:1004D000704770477047000000487047F0020020E6
:1004E00030B5B0F10A024FEA900E71F100034EEA06
:1004F000817EB0EB0E0061EB91014FEA101E4EEAD7
:10050000017E10EB0E0041EB11114FEA102E4EEA66
:10051000016E10EB0E0041EB11214FEA104E4EEA36
:10052000014E10EB0E0041EB1141401841F100016A
:100530004FEAD00040EA41704FEAD10110EB80054C
:100540004FEA810444EA907444EB01046D1944EBD2
:100550000404521BA3414FF0000348BF0A3200D5E8
:1005600030BD401C41F1000130BD2DE9F0470D4682
:1005700099469246044600F124080168880604D58D
:10058000E06921F01001216000E00120A84201DDB6
:10059000471B00E00027A1697A1902EB0900081A3D
:1005A000A0612078C00602D42046AFF30080002668
:1005B00008E0D4E901211AF806009047206A401C9F
:1005C000761C20624E45F4DB2078C0060AD5204612
:1005D000AFF3008006E0D4E9012130209047206A83
:1005E000401C2062381EA7F10107F4DC07E0D4E9C3
:1005F000012118F805009047206A401C2062281E3F
:10060000A5F10105F3DC2046AFF300802078000659
:1006100002D50220BDE8F0870120FBE710B5436951
:1006200013B1AFF3008001E0FFF716FE012010BD0B
:10063000127800F124010A7000224A700122EDE7CD
:1006400011684FF0FF32E9E7074B70B50D467B4468
:1006500000F077F80446284600F0D5F810B14FF0C6
:10066000FF3070BD204670BD1F2E00002DE9F04701
:1006700091460F4680460446002614F8015B2DB1D2
:1006800000F052F80068405DC007F6D12B2D02D073
:100690002D2D18D0641E4A463946204600F064F8D5
:1006A00027B13968A14201D1C7F800804FF0020498
:1006B00071050BD54042002803DDFFF70DFF0460F4
:1006C000A007BDE8F08746F48066E4E70028F8DA82
:1006D000FFF702FF04606FF00040F2E72DE9F04100
:1006E00015460E46040002D12C6804B90BA420461E
:1006F00000F09DF80444207870B127463146384612
:1007000000F085F80444207810B1002004F8010BB3
:1007100038462C60BDE8F0810027F9E700000000B2
:1007200000487047F002002010B500F0B3F8001D3B
:1007300010BD00BFB931000001694A1C0261087890
:10074000704700B58FB0CDE9013100210591054911
:100750007944CDE9031011466846FFF721FE0FB03A
:1007600000BD0000E5FFFFFF2DE9F05F8246154662
:100770008B4600270AF10104B9460078302801D0E1
:100780009DB113E014F8010B0127782803D05828F5
:1007900001D045B10AE00DB1102D07D1002714F8A2
:1007A000010B102502E0082500E00A250026B046CE
:1007B0000EE005FB080005FB06F101271FFA80F893
:1007C00001EB1046B6F5803F00D3B94614F8010B93
:1007D000294600F063F80028EBDABBF1000F05D0E2
:1007E0000FB1641E00E05446CBF80040B9F1000F91
:1007F00006D0FFF771FE02210160C81EBDE8F09F20
:1008000048EA0640FAE7007B00F08000704730B508
:1008100003461D781DB10A4603E0AC4201D1181A07
:1008200030BD12F8014B002CF7D15B1CF1E730B55D
:1008300003461D783DB10A4612F8014B1CB1AC428B
:10084000FAD15B1CF5E7181A30BD7546FFF768FF53
:10085000AE4605006946534620F00700854618B0AD
:1008600020B5FFF7D9FCBDE820404FF000064FF05F
:1008700000074FF000084FF0000B21F00701AC46D5
:10088000ACE8C009ACE8C009ACE8C009ACE8C009F4
:100890008D46704700487047100300203A2800D268
:1008A000303820F02002412A01D3A2F137008842DB
:1008B00001D34FF0FF3070470446AFF3008020466D
:1008C000FFF796FC4FF0013C50F8042B51F8043B25
:1008D0009A4221D1A2EB0C03934313EACC1317D114
:1008E00050F8042B51F8043B9A4215D1A2EB0C03AB
:1008F000934313EACC130BD150F8042B51F8043B6B
:100900009A4209D1A2EB0C03934313EACC13DBD038
:100910004FF00000704700BFD01A01BAB1FA81F160
:1009200001F0180122FA01F0CB40C1F12001DBB245
:10093000C0B2C01A2CFA01F3D11A914311EAC311C3
:10094000E6D1704770B5044600252068806800F045
:100950000100F0B12068806820F001002168886003
:1009600000F0AEFE05460EE000F0AAFE401B022895
:1009700009D9A06A40F01000A062E06A40F00100CE
:10098000E062012070BD2068806800F0010000284E
:10099000EAD10020F6E7000038B504460025002023
:1009A00000902068806800F0010080BB20688068AB
:1009B00040F0010021688860164800681649B0FBC5
:1009C000F1F0009002E00098401E0090009800288E
:1009D000F9D100F075FE054613E000F071FE401BF2
:1009E00002280ED9A06A40F01000A062E06A40F030
:1009F0000100E06200BF002084F8240000BF012055
:100A000038BD2068806800F001000028E5D0002093
:100A1000F6E700002800002040420F0000B585B036
:100A200000BF00BF0D48806940F004000B49886199
:100A30000846806900F00400009000BF00BF00BFBE
:100A4000042001900120029003900320049001A94A
:100A5000034800F087FC05B000BD00000010024014
:100A60000008014000BFFEE710B508210D4800F066
:100A700019FE04460C480078844210D0322000F061
:100A80006BFC0821074800F00DFE0446064800787C
:100A9000844204D0044804700CB9012010BD002029
:100AA000FCE70000000801405900002070470000EA
:100AB00001480068406A7047A8000020F8B5044665
:100AC00000260020009000BF94F82400012801D1E6
:100AD0000220F8BD012084F8240000BF2046FFF763
:100AE00031FF0646002E62D1A06A20F4885040F003
:100AF0000200A062022000F087FE30490968B1FBC5
:100B0000F0F04000009002E00098401E0090009835
:100B10000028F9D12046FFF73FFF2068806840F0A9
:100B200008002168886000F0CBFD054611E000F068
:100B3000C7FD401B0A280CD9A06A20F0020040F033
:100B40001000A06200BF002084F8240000BF012034
:100B5000BFE72068806800F008000028E7D120681F
:100B6000806840F004002168886000F0A9FD054617
:100B700011E000F0A5FD401B0A280CD9A06A20F066
:100B8000020040F01000A06200BF002084F82400A2
:100B900000BF01209DE72068806800F00400002865
:100BA000E7D1A06A20F0020040F00100A06200BF7F
:100BB000002084F8240000BF30468AE72800002087
:100BC00038B5024600230020009000BF92F82400B0
:100BD000012801D1022038BD012082F8240000BF85
:100BE0004868072812D21068406B0C79641E04EB29
:100BF00084051F24AC40A0430D796D1E05EB8505CF
:100C00000C68AC4020431468606327E048680D28F6
:100C100012D21068006B0C79E41F04EB84051F24CA
:100C2000AC40A0430D79ED1F05EB85050C68AC4089
:100C300020431468206311E01068C06A0C790D3CF1
:100C400004EB84051F24AC40A0430D790D3D05EB5A
:100C500085050C68AC4020431468E06208680A28E7
:100C600012D31068C0680C780A3C04EB44050724D2
:100C7000AC40A0430D780A3D05EB45058C68AC40BF
:100C800020431468E0600FE0106800690C7804EB02
:100C900044050724AC40A0430D7805EB45058C685E
:100CA000AC402043146820610868102802D008680E
:100CB000112827D1174C1068A0421ED110688068F7
:100CC00000F40000F0B91068806840F40000146877
:100CD000A0600868102815D10F4800680F4CB0FBC1
:100CE000F4F000EB80004000009002E00098401E0D
:100CF000009000980028F9D104E0906A40F02000AC
:100D00009062012300BF002082F8240000BF184633
:100D100061E70000002401402800002040420F004D
:100D200001460868C06C70472DE9F0410446002771
:100D300000250026A84614B90120BDE8F081A0686E
:100D400010B1207D00B100BFA06A30B90020E06280
:100D500084F82400204600F097F82046FFF7F2FDC3
:100D60000746A06A00F01000002873D1002F7ED142
:100D7000A06A20F4885040F00200A0623F4AD4E903
:100D80000001904208D1E069B0F5402F02D14FF444
:100D9000002002E0E06900E0E0690143207B41EAD5
:100DA00040000643A068B0F5807F02D0A06801280B
:100DB00002D14FF4807000E000200543207D01281F
:100DC00011D1207B38B9A069401E4FF4006141EA7F
:100DD0004030054307E0A06A40F02000A062E06ACE
:100DE00040F00100E0622068406820F46940284338
:100DF00021684860206880682149084030432168A4
:100E00008860A068B0F5807F02D0A068012802D178
:100E10004FF4807000E00020B0F5807F03D1208A7D
:100E2000401E4FEA00582068C06A20F4700040EA73
:100E300008002168C8622068806812490840B042F2
:100E400009D10020E062A06A20F0020040F0010019
:100E5000A06211E00BE0A06A20F0020040F0100058
:100E6000A062E06A40F00100E062012704E0A06AAD
:100E700040F01000A062012738465EE7003C0140C8
:100E8000FDF7E1FFFE0E1FFF10B58CB004461D49B3
:100E90002068884233D1182102A8FFF7F1FA00BF79
:100EA00000BF1948806940F40070174988610846FE
:100EB000806900F40070019000BF00BF00BF00BF58
:100EC00000BF0846806940F00400886108468069D8
:100ED00000F00400019000BF00BF00BF022002909C
:100EE0008003049002A800F029FD4FF48040089090
:100EF0000320099008A9054800F034FA00BF0CB09F
:100F000010BD000000240140001002400008014014
:100F1000F8B504460D46002600200090002700F09A
:100F2000CFFB06462068806800F4807050B1A06A4C
:100F300040F02000A06200BF002084F8240000BF21
:100F40000120F8BD2068406800F48070F8B920687E
:100F5000C06A00F47000D0B912E0681C80B125B1FD
:100F600000F0AEFB801BA8420AD9A06A40F0040042
:100F7000A06200BF002084F8240000BF0320E0E747
:100F80002068006800F002000028E6D050E002204F
:100F900000F03AFC36490968B1FBF0F021680969B4
:100FA000344A114091B92168C9689211114069B958
:100FB00021680969304A114031B92168C968921124
:100FC000114009B9142117E0292115E021680969A8
:100FD000294A114021B92168C9689211114041B1D3
:100FE00021680969254A114029B92168C968114059
:100FF00009B9542100E0FC2100FB01F715E0681C51
:1010000080B125B100F05CFB801BA8420AD9A06A20
:1010100040F00400A06200BF002084F8240000BF5C
:1010200003208EE70098401C00900098B842E6D359
:101030006FF0120021680860A06A40F40070A0629E
:101040002068806800F46020B0F5602F0DD1207B0F
:1010500058B9A06A20F48070A062A06A00F48050A1
:1010600018B9A06A40F00100A062002069E7000002
:1010700028000020244992249224491249922400F5
:1010800070B50446002500BF94F82400012801D162
:10109000022070BD012084F8240000BF2046FFF725
:1010A0007BFC0546002D77D1A06A40F201218843E0
:1010B00040F48070A0623C492068884208D13B48D7
:1010C000006800F4702008B9012002E0002000E070
:1010D000012078B1A06A20F48010A06220684068E6
:1010E00000F4806000B3A06A20F4005040F4805007
:1010F000A06219E0A06A40F48010A0622B49091F89
:101100002068884203D028492068884204D12748B3
:10111000006800F4806000E0002028B1A06A20F49C
:10112000005040F48050A062A06A00F4805020B1CA
:10113000E06A20F00600E06201E00020E06200BF0B
:10114000002084F8240000BFC01E216808602068C9
:10115000806800F46020B0F5602F16D11249206835
:10116000884208D11148006800F4702008B90120B5
:1011700002E0002000E0012038B12068806840F4DF
:10118000A000216888600CE006E02068806840F4D8
:1011900080102168886004E000BF002084F82400EB
:1011A00000BF284675E700000028014004240140E4
:1011B00070B50446002594F82100022803D00420CD
:1011C000A0630125C1E02068006820F00E002168BE
:1011D00008602068006820F00100216808605C4910
:1011E0002068884252D95A4978392068884201D10A
:1011F000012047E0564964392068884201D1102017
:1012000040E0534950392068884201D1801539E0C7
:101210004F493C392068884201D1801432E04C4962
:1012200028392068884202D14FF480302AE04849AA
:1012300014392068884202D14FF4801022E04449DA
:101240002068884201D140041CE04249206888425D
:1012500001D1012016E03F4914312068884201D1B4
:1012600010200FE03B4928312068884201D18015C9
:1012700008E038493C312068884201D1801401E0FF
:101280004FF480303349091F086051E03049783904
:101290002068884201D1012047E02D496439206847
:1012A000884201D1102040E0294950392068884205
:1012B00001D1801539E026493C392068884201D1A6
:1012C000801432E0224928392068884202D14FF444
:1012D00080302AE01E4914392068884202D14FF438
:1012E000801022E01A492068884201D140041CE0A5
:1012F00018492068884201D1012016E015491431AF
:101300002068884201D110200FE01249283120685E
:10131000884201D1801508E00E493C31206888429E
:1013200001D1801401E04FF48030094980394860D0
:10133000012084F8210000BF002084F8200000BFB5
:10134000606B10B12046616B8847284670BD000075
:10135000800002400804024010B50446A0B202F02A
:1013600045F810BD2DE9F847024600239C467BE175
:101370004FF0010808FA03F4D1F8008008EA0400ED
:10138000A0427DD1DFF8F4A2D1F80480A8EB0A09CD
:10139000D0453AD014DCB8F1030F50D009DCB8F1D5
:1013A000000F31D0B8F1010F1CD0B8F1020F49D1B4
:1013B00020E0B8F1110F18D0B8F1120F42D11EE0A1
:1013C000B9F5881F25D006DCB9F5803F20D0B9F5E6
:1013D000801F37D11AE0B9F5001F18D0B9F5041FE6
:1013E00030D117E0D1F80CC02DE0D1F80C8008F115
:1013F000040C28E0D1F80C8008F1080C23E0D1F8A7
:101400000C8008F10C0C1EE000BF00BF00BF00BF45
:1014100000BF00BFD1F80880B8F1000F02D14FF033
:10142000040C0BE0D1F80880B8F1010F03D14FF0A4
:10143000080C146102E04FF0080C546103E04FF017
:10144000000C00E000BF00BFFF2801D8904601E07B
:1014500002F104084646FF2802D84FEA830803E059
:10146000A3F108084FEA88084746D6F800804FF0F5
:101470000F0909FA07F928EA09080CFA07F900E048
:101480007AE048EA0908C6F80080D1F8048008F03C
:101490008058B8F1805F6FD100BFDFF8E481D8F8E1
:1014A000188048F00108DFF8D891C9F81880C846BC
:1014B000D8F8188008F00108CDF8008000BF00BF00
:1014C0004FEAB9384FEA930958F829504FEA837820
:1014D0004FEA18794FF00F0808FA09F825EA0805CD
:1014E000DFF8A081424502D14FF0000824E0DFF888
:1014F0009881424502D14FF001081DE0DFF88C8150
:10150000424502D14FF0020816E0DFF884814245DF
:1015100002D14FF003080FE0DFF87881424502D195
:101520004FF0040808E0DFF87081424502D14FF027
:10153000050801E04FF006084FEA83794FEA197970
:1015400008FA09F848EA0505DFF850814FEA9309DF
:1015500048F82950D1F8048008F48038B8F5803F65
:101560000BD1DFF83C81D8F8008048EA0008DFF8AA
:101570003091C9F800800AE075E0DFF82481D8F8DE
:10158000008028EA0008DFF81891C9F80080D1F837
:10159000048008F40038B8F5003F0ED1DFF8008170
:1015A00008F10408D8F8008048EA0008DFF8F09055
:1015B00009F10409C9F800800DE0DFF8E48008F1C2
:1015C0000408D8F8008028EA0008DFF8D49009F170
:1015D0000409C9F80080D1F8048008F48018B8F52F
:1015E000801F0ED1DFF8B88008F10808D8F8008015
:1015F00048EA0008DFF8A89009F10809C9F8008056
:101600000DE0DFF89C8008F10808D8F8008028EA8F
:101610000008DFF88C9009F10809C9F80080D1F8BA
:10162000048008F40018B8F5001F0ED1DFF87080B0
:1016300008F10C08D8F8008048EA0008DFF860904C
:1016400009F10C09C9F800800DE0DFF8548008F1B9
:101650000C08D8F8008028EA0008DFF8449009F167
:101660000C09C9F800805B1CD1F8008028FA03F847
:10167000B8F1000F7FF47CAEBDE8F88700001110D0
:101680000010024000080140000C01400010014021
:101690000014014000180140001C014008000140F6
:1016A00000040140024693680B400BB1012000E0AA
:1016B000002070470AB1016101E00B04036170472B
:1016C00001480068704700005000002010B508482D
:1016D000006840F0100006490860052000F080F81E
:1016E0000F2000F007F800F02BF8002010BD0000DC
:1016F0000020024070B504460E4800784FF47A711D
:10170000B1FBF0F00C490968B1FBF0F5284600F098
:1017100029FD08B1012070BD102C07D200222146FE
:10172000501E00F01EF80548046001E00120F2E7B9
:101730000020F0E75800002028000020540000207E
:10174000704701460846002809DB00F01F0301220C
:101750009A4043099B0003F1E023C3F8002100BF36
:1017600070472DE9F05F80460D461646002701F0D0
:10177000B5FD074639462A46334601F00700C0F159
:10178000070ABAF1040F02D94FF0040A01E0C0F1D0
:10179000070AD14600F1040ABAF1070F02D24FF04E
:1017A000000A01E0A0F1030AD4464FF0010A0AFA48
:1017B00009FAAAF1010A0AEA020A0AFA0CFA4FF037
:1017C000010B0BFA0CFBABF1010B0BEA030B4AEA22
:1017D0000B042146404601F089FDBDE8F09F000062
:1017E00000BF00F00702064B19684FF6FF031940CF
:1017F000044B0B4343EA0221014B196000BF7047C1
:101800000CED00E00000FA052DE9F04385B0064636
:1018100042A30FCB01AC0FC444A0006800904FF06E
:101820000008002500270024A146042E36D004DC41
:10183000012E3BD0022E6BD15FE0082E32D0102E4D
:1018400066D13B484468006800F0807000B301A88E
:10185000C4F38341475C04F4803070B1344840687D
:10186000C0F340401DF8008004F4803040B131489E
:10187000B0FBF8F000FB07F502E02F4807FB00F58E
:101880002B48406800F48000B0F5800F01D1A946D4
:1018900003E068000321B0FBF1F93AE000F0D2F96F
:1018A000814636E000F0CEF9814632E02048046AF5
:1018B00004F44070B0F5807F05D104F0020010B14F
:1018C0004FF4004918E004F44070B0F5007F07D1F0
:1018D0001748406A00F0020010B149F640490BE099
:1018E00004F44070B0F5407F06D11148006800F460
:1018F000003008B14FF224490BE000F093F90C4995
:101900004968C1F38131491C4900B0FBF1F900E09D
:1019100000BF00BF484605B0BDE8F08302030405E0
:10192000060708090A0B0C0D0E0F1010010200002B
:101930000010024000127A0000093D00F8B504468C
:1019400000260025207800F0010000286BD0002739
:101950004348C06900F0805070B900BF4048C0697A
:1019600040F080503E49C8610846C06900F0805090
:10197000009000BF00BF01273A48006800F4807063
:10198000B0B93848006840F4807036490860FFF705
:1019900097FE064606E0FFF793FE801B642801D9F8
:1019A0000320F8BD2F48006800F480700028F2D0B2
:1019B0002B48006A00F440752DB3A08800F44070F5
:1019C000A84220D02648006A20F44075012026490C
:1019D0000860002008602248056205F0010090B10F
:1019E000FFF76EFE064608E0FFF76AFE801B41F235
:1019F0008831884201D90320D3E71948006A00F0F2
:101A000002000028F0D01648006A20F44070616897
:101A1000084313490862012F04D10846C06920F029
:101A20008050C86100BF207800F00200022807D172
:101A30000B48406820F44040A168084308494860CA
:101A4000207800F01000102807D10548406820F4E5
:101A5000800061690843024948600020A1E7000056
:101A600000100240007000404004424270B504463D
:101A70000D460CB9012070BD5A48006800F00700FF
:101A8000A8420ED25748006820F007002843554965
:101A900008600846006800F00700A84201D0012055
:101AA000E9E7207800F0020002281DD1207800F03C
:101AB0000400042805D14C48406840F4E0604A49DD
:101AC0004860207800F00800082805D146484068A2
:101AD00040F46050444948604348406820F0F000BA
:101AE000A168084340494860207800F0010078B3BD
:101AF0006068012806D13C48006800F4003090B9C5
:101B00000120B8E76068022806D13748006800F075
:101B1000007040B90120AEE73348006800F00200D1
:101B200008B90120A7E73048406820F00300616849
:101B300008432D494860FFF7C3FD064609E0FFF75B
:101B4000BFFD801B41F28831884202D9032092E711
:101B500007E02548406800F00C006168B0EB810F99
:101B6000EDD12048006800F00700A8420ED91D48BA
:101B7000006820F0070028431A49086008460068FA
:101B800000F00700A84201D0012074E7207800F09F
:101B90000400042807D11448406820F4E060E1689C
:101BA000084311494860207800F00800082808D14F
:101BB0000D48406820F46050216940EAC1000A499C
:101BC000486000F03FF808494968C1F30311074A2B
:101BD000515CC8400649086006480068FFF78AFD66
:101BE000002048E700200240001002401839000899
:101BF00028000020540000200148006870470000C1
:101C00002800002000B5FFF7F7FF04494968C1F339
:101C10000221034A515CC84000BD00000010024090
:101C20002839000800B5FFF7E7FF04494968C1F308
:101C3000C221034A515CC84000BD000000100240B0
:101C400028390008F0B585B00FF26C0C9CE8E01064
:101C500001A8A0E8E0101CA52D6800950021002235
:101C6000002300240020194D696801F00C05F5B12E
:101C7000042D02D0082D19D101E0154819E001AD5D
:101C8000C1F38346AC5D01F4803555B10F4D6D68ED
:101C9000C5F340451DF805200D4D6543B5FBF2F336
:101CA00002E00C4D04FB05F3184602E000BF0848B3
:101CB00000BF00BF05B0F0BD020304050607080918
:101CC0000A0B0C0D0E0F1010010200000010024054
:101CD00000127A0000093D00F8B504460CB9012055
:101CE000F8BD207800F00100002878D0F84840685E
:101CF00000F00C0004280CD0F548406800F00C00FF
:101D0000082811D1F248406800F48030B0F5803FD7
:101D10000AD1EF48006800F4003000285FD0606806
:101D200000285CD10120DBE700BF6068B0F5803F90
:101D300006D1E748006840F48030E549086028E0B3
:101D4000606858B9E248006820F48030E0490860D3
:101D50000846006820F4802008601AE06068B0F54A
:101D6000A02F0BD1DA48006840F48020D8490860E1
:101D70000846006840F4803008600AE0D4480068F3
:101D800020F48030D24908600846006820F48020A2
:101D9000086000BF606888B1FFF792FC054606E066
:101DA000FFF78EFC401B642801D9032098E7C84840
:101DB000006800F400300028F2D010E0FFF780FC4B
:101DC000054606E0FFF77CFC401B642801D9032090
:101DD00086E7BF48006800F400300028F2D1207880
:101DE00000F00200022857D1B948406800F00C000A
:101DF00050B1B748406800F00C00082818D1B4482A
:101E0000406800F4803098B9B148006800F00200E2
:101E100020B12069012801D0012061E7AC480068A9
:101E200020F0F800616940EAC100A949086033E088
:101E30002069E8B10120A7490860FFF741FC054689
:101E400006E0FFF73DFC401B022801D9032047E7CD
:101E50009F48006800F002000028F2D09C4800680B
:101E600020F0F800616940EAC1009949086013E078
:101E7000002098490860FFF723FC054606E0FFF7BD
:101E80001FFC401B022801D9032029E79048006865
:101E900000F002000028F2D1207800F008000828A5
:101EA0002DD1A069B8B101208B490860FFF708FC6B
:101EB000054606E0FFF704FC401B022801D9032079
:101EC0000EE78348406A00F002000028F2D00120AB
:101ED00000F044FF13E000207F490860FFF7F0FBAB
:101EE000054606E0FFF7ECFB401B022801D9032062
:101EF000F6E67748406A00F002000028F2D1207828
:101F000000F00400042873D100277148C06900F074
:101F1000805070B900BF6E48C06940F080506C4975
:101F2000C8610846C06900F08050009000BF00BF43
:101F300001276A48006800F48070B0B967480068FB
:101F400040F4807065490860FFF7BAFB054606E07B
:101F5000FFF7B6FB401B642801D90320C0E65F48A9
:101F6000006800F480700028F2D000BFE06801280B
:101F700006D15748006A40F001005549086227E041
:101F8000E06858B95248006A20F0010050490862E0
:101F90000846006A20F00400086219E0E06805289D
:101FA0000BD14B48006A40F00400494908620846DA
:101FB000006A40F0010008620AE04548006A20F02B
:101FC0000100434908620846006A20F004000862E4
:101FD00000BFE068A0B1FFF773FB054609E0FFF71B
:101FE0006FFB401B41F28831884202D9032077E61B
:101FF00022E03748006A00F002000028EFD012E02B
:10200000FFF75EFB054608E0FFF75AFB401B41F275
:102010008831884201D9032062E62D48006A00F029
:1020200002000028F0D1012F05D12948C06920F015
:1020300080502749C86100BFE069C8B324484068A0
:1020400000F00C00082860D0E069022848D1002088
:1020500020490866FFF734FB054606E0FFF730FB32
:10206000401B022801D903203AE61948006800F015
:1020700000700028F2D1206AB0F5803F07D11448E3
:10208000406820F40030A168084311494860D4E951
:10209000080108430E49496821F4741108430C49AA
:1020A000486001200B490866FFF70AFB054607E078
:1020B0003DE0FFF705FB401B022801D903200FE696
:1020C0000348006800F000700028F2D02FE0000004
:1020D0000010024000004242800442420070004072
:1020E000002014490866FFF7EBFA054606E0FFF703
:1020F000E7FA401B022801D90320F1E50E480068E9
:1021000000F000700028F2D111E0E069012800D150
:10211000E6E50948466806F48031206A814204D128
:1021200006F47011606A814201D00120D8E50020D8
:10213000D6E500000000424200100240042808D109
:102140004FF0E021096941F004014FF0E0221161F4
:1021500007E04FF0E021096921F004014FF0E0228F
:102160001161704770B504462546681EB0F1807F46
:1021700001D301200FE0681E4FF0E02148610F21DC
:102180004FF0FF3001F0B2F800204FF0E0218861FD
:1021900007200861002070BD30B502460B4600BF25
:1021A00092F83C00012801D1022030BD012082F8C4
:1021B0003C0000BF022082F83D00106844681068AF
:1021C000816824F070041868044310684460144D5A
:1021D0001068A84213D0134D1068A8420FD01068A1
:1021E000B0F1804F0BD0104D1068A84207D00F4DB2
:1021F0001068A84203D00E4D1068A84205D121F006
:1022000080015868014310688160012082F83D0018
:1022100000BF002082F83C0000BF00BFC5E70000FF
:10222000002C014000340140000400400008004040
:10223000000C00402DE9F04104460D4614B9012080
:10224000BDE8F08194F83D0028B9002084F83C00F6
:10225000204600F051F8022084F83D002068806894
:1022600044F20701884321688860211D206800F03E
:10227000BDFD2068D0F80880206886692068076A5C
:10228000286840EA080840F203308643A969A86834
:1022900040EA0120064340F60C4086434FF2F0002E
:1022A0008643E969E86840EA01200643286900019D
:1022B000296A40EA0130064327F022076969686805
:1022C00040EA011007432068C0F808802068866152
:1022D00020680762012084F8460084F83E0001214E
:1022E0003F200155012084F8420043200155012080
:1022F00084F83D000020A3E710B586B00446002016
:1023000002900390049005902068B0F1804F2BD18B
:1023100000BF1648C06940F001001449C861084672
:10232000C06900F00100019000BF00BF00BF084677
:10233000806940F0040088610846806900F004006C
:10234000019000BF00BF0320029000200390049082
:1023500002A90748FFF706F8002201211C20FFF719
:1023600000FA1C20FFF7EDF906B010BD0010024086
:10237000000801402DE9F04304460D4694F83E6004
:102380003F20075D94F84280432010F804906DB917
:10239000012E02D1B8F1010F02D00120BDE8F08377
:1023A000022084F83E0084F8420025E0042D0CD180
:1023B000012F02D1B9F1010F01D00120EEE7022176
:1023C0003F2001554320015516E0012E07D1012F72
:1023D00005D1B8F1010F02D1B9F1010F01D00120EF
:1023E000DCE7022084F83E0002213F200155022054
:1023F00084F842004320015515B1042D0CD105E0AD
:1024000001220021206800F03FFD10E0012204219C
:10241000206800F039FD0AE001220021206800F068
:1024200033FD01220421206800F02EFD00BF00BF13
:102430002068006840F00100216808600020ADE7D6
:1024400030B504460D4615B1042D0CD105E000222F
:102450001146206800F018FD10E0002204212068D9
:1024600000F012FD0AE000221146206800F00CFD89
:1024700000220421206800F007FD00BF00BF00BF5C
:102480002068006A41F21111084050B92068006AC2
:102490008910084028B92068006820F001002168F0
:1024A000086000BF0DB1042D28D11DB9012084F8AA
:1024B0003E000EE0042D03D101213F20015508E02C
:1024C000082D03D101214020015502E001214120C6
:1024D00001551DB9012084F842001AE0042D03D1F2
:1024E00001214320015514E0082D03D1012144208E
:1024F00001550EE00121452001550AE0012084F834
:102500003E0001213F200155012084F84200432074
:102510000155002030BD70B504460D46164600BF7B
:1025200094F83C00012801D1022070BD012084F8FC
:102530003C0000BF36B1042E1BD0082E31D00C2E2B
:102540005ED145E02946206800F0B0FC2068806933
:1025500040F00800216888612068806920F004004C
:102560002168886120688069296908432168886139
:1025700047E02946206800F0D1FC2068806940F4DB
:102580000060216888612068806920F4806021688B
:10259000886120688069296940EA01202168886192
:1025A0002FE02946206800F0F7FC2068C06940F061
:1025B00008002168C8612068C06920F00400216813
:1025C000C8612068C069296908432168C86118E0AA
:1025D0002946206800F01CFD2068C06940F40060B6
:1025E0002168C8612068C06920F480602168C861E2
:1025F0002068C069296940EA01202168C86100E0BB
:1026000000BF00BF00BF002084F83C0000BF00BF37
:102610008BE710B504460CB9012010BD94F83D00BD
:1026200028B9002084F83C00204600F025F802205C
:1026300084F83D00211D206800F0D8FB012084F8BB
:10264000460000BF84F83E0001213F200155402094
:1026500001554120015500BF00BF012084F8420010
:1026600043200155442001554520015500BF01205C
:1026700084F83D000020D0E710B586B00446002065
:10268000029003900490059015492068884225D156
:1026900000BF1448C06940F002001249C8610846F2
:1026A000C06900F00200019000BF00BF00BF0846F3
:1026B000806940F0080088610846806900F00800E1
:1026C000019000BF00BF02200290039001200490FF
:1026D0000320059002A90448FEF744FE06B010BD91
:1026E0000004004000100240000C014070B5044698
:1026F0000D4615B994F83E000BE0042D02D13F20A1
:10270000005D06E0082D02D14020005D01E041207F
:10271000005D012801D0012070BD1DB9022084F8A0
:102720003E000EE0042D03D102213F20015508E0B8
:10273000082D03D102214020015502E00221412051
:10274000015501222946206800F09EFB1F492068A0
:10275000884203D01E492068884201D1012000E050
:10276000002028B12068406C40F400402168486493
:1027700016492068884213D01549206888420FD036
:102780002068B0F1804F0BD012492068884207D0F2
:1027900011492068884203D01049206888420CD132
:1027A0002068806800F00706062E0CD020680068BC
:1027B00040F001002168086005E02068006840F0F2
:1027C0000100216808600020A6E70000002C0140FD
:1027D000003401400004004000080040000C0040AC
:1027E000704700002DE9F04704462068056820681E
:1027F000C668206847694FF00008C14605F00F0819
:10280000B8F1000F0AD105F0200038B106F0200021
:1028100020B1204600F050FCBDE8F087B8F1000F71
:1028200071D007F0010018B906F4907000286AD042
:1028300005F0010030B106F4807018B1E06B40F093
:102840000100E06305F0040030B107F0010018B1A9
:10285000E06B40F00200E06305F0020030B107F0E9
:10286000010018B1E06B40F00400E06305F00800DF
:1028700048B106F0200010B907F0010018B1E06B74
:1028800040F00800E063E06B68B305F0200028B179
:1028900006F0200010B1204600F00EFC20684069D0
:1028A000C0F38019E06B00F0080010B9B9F1000F17
:1028B00022D0204600F0E0FB2068406900F0400094
:1028C000B0B12068406920F0400021684861606B29
:1028D00050B11848616B4863606BFEF769FC10B13A
:1028E000606B416B88470CE02046FFF779FF08E0FA
:1028F0002046FFF775FF04E02046FFF771FF002038
:10290000E06389E7FFE705F0800030B106F0800062
:1029100018B1204600F09EFC7EE705F0400030B183
:1029200006F0400018B1204600F0B6FB74E700BF87
:1029300072E700006530000810B504460CB90120AC
:1029400010BDA06900B100E000BF94F8390028B9BB
:10295000002084F83800204600F028F8242084F86D
:1029600039002068C06820F400502168C860204603
:1029700000F0F2FB2068006920F4904021680861B3
:102980002068406920F02A00216848612068C068FA
:1029900040F400502168C8600020E063202084F8E3
:1029A000390084F83A000020CAE7000010B586B06C
:1029B00004462849206888424AD100BF00BF264803
:1029C000806940F00400244988610846806900F06D
:1029D0000400019000BF00BF00BF00BF00BF084659
:1029E000806940F0040088610846806900F00400B6
:1029F000019000BF00BF00BF00BF00BF0846806954
:102A000040F4804088610846806900F4804001906D
:102A100000BF00BF00BF48150290022003900120B4
:102A200004900320059002A90C48FEF79BFC4FF48C
:102A3000806002900020039002A90848FEF792FCF3
:102A40002520FEF77EFE032211462520FEF789FE93
:102A500006B010BD003801400010024000080140DF
:102A600010B5034693F83A0020282FD101B10AB9D6
:102A7000012010BD00BF93F83800012801D10220C9
:102A8000F7E7012083F8380000BF99629A85DA855C
:102A90000020D863222083F83A0000BF002083F88A
:102AA000380000BF1868C06840F480701C68E0609F
:102AB0001868406940F001001C6860611868C068CF
:102AC00040F020001C68E0600020D2E70220D0E740
:102AD00010B504462949206888424DD1284800880D
:102AE00000F40040002847D12548008800F48040C9
:102AF00020B3244800780A2803D000202049088009
:102B00003AE01F48008840F400401D4908801E48F4
:102B10000078232806D11C484078302802D100F0E4
:102B20001FFE03E0184919A0FDF78AFB0020144995
:102B30000880C8211448FDF7A3FC1DE01148007867
:102B40000D2806D10E48008840F480400C490880CA
:102B500012E00C4800780A490988C1F30D010A4ABD
:102B6000505407480088401C0549088008460088E2
:102B7000C72801DD0020088010BD0000003801409A
:102B80003400002036000020F00000206572726FD3
:102B9000722072656365697665643A25730D0A0073
:102BA000704700BFFEE7000000B585B000BF00BF62
:102BB0000D48806940F004000B498861084680692F
:102BC00000F00400009000BF00BF00BF082001908B
:102BD00000200290012003900320049001A90348E3
:102BE000FEF7C0FB05B000BD001002400008014028
:102BF00000B58BB0242102A8FDF742FC0020009014
:102C000001904FF080401A4908600120486000217F
:102C1000174881604FF6FF71C1600021016180217A
:102C20008161032002900020039001200490002085
:102C300005900F20069000200790012008900020AA
:102C400009900F200A9002A90948FFF7F3FA10B182
:102C500008A0FDF7F5FA00200090019069460448AD
:102C6000FFF79AFA10B10AA0FDF7EAFA0BB000BD1F
:102C7000A800002048414C5F54494D5F456E636F8A
:102C80006465725F496E6974206572726F720000CC
:102C900048414C5F54494D45785F4D61737465728E
:102CA000436F6E66696753796E6368726F6E697A97
:102CB0006174696F6E206572726F720070B588B052
:102CC00006460C4615461C2101A8FDF7D9FB114804
:102CD000114908600846446000218160C660FFF722
:102CE00098FC10B10DA0FDF7ABFA602001900295A1
:102CF000002003900C2201A90748FFF70CFC10B13B
:102D00000CA0FDF79DFA0C210348FFF7EFFC08B07B
:102D100070BD0000000400406000002048414C5F8E
:102D200054494D5F50574D5F496E6974206572720A
:102D30006F72000048414C5F54494D5F50574D5FE2
:102D4000436F6E6669674368616E6E656C2065727D
:102D5000726F720000BFFEE77047000008B50849B7
:102D60000968C9084FF47A72B1FBF2F1414300914E
:102D700000BF00BF00994A1E00920029F9D108BD8A
:102D8000280000200149096808647047600000209D
:102D90007047704710B513480068006900F00100E3
:102DA000D0B110490968486A40B90F49D1E90041DA
:102DB000631C41F100010C4AC2E900314FF6FF717A
:102DC000884208D10849D1E90041631E61F1000140
:102DD000054AC2E9003100BF6FF0010001490968EE
:102DE000086110BDA80000201000002010B5026886
:102DF000204B98420ED0204B98420BD0B0F1804F20
:102E000008D01E4B984205D01D4B984202D01D4B56
:102E1000984203D122F070024B681A43154B984236
:102E20000ED0154B98420BD0B0F1804F08D0134B09
:102E3000984205D0124B984202D0124B984203D1CF
:102E400022F44072CB681A4322F080034C6943EAB3
:102E5000040202608B68C3620B688362054B984270
:102E600002D0054B984201D10B69036301234361F2
:102E700010BD0000002C014000340140000400405F
:102E800000080040000C004030B501F01F0501248F
:102E900004FA05F3046A9C430462046A01F01F0506
:102EA00002FA05F52C43046230BD000030B5056A16
:102EB00025F001050562026A4368846924F0700404
:102EC00024F003040D682C4322F002028D682A438B
:102ED000104DA84200D103E00F4DA84206D100BF1B
:102EE00022F00802CD682A4322F00402094DA842CC
:102EF00002D0094DA84207D123F4807323F4007354
:102F00004D692B438D692B43436084614D68456354
:102F1000026230BD002C01400034014030B5056A2A
:102F200025F010050562026A4368846924F4E044D0
:102F300024F440740D6844EA052422F020028D68D0
:102F400042EA0512124DA84200D103E0114DA842F9
:102F500007D100BF22F08002CD6842EA051222F0BC
:102F600040020B4DA84202D00A4DA84209D123F4D9
:102F7000806323F400634D6943EA85038D6943EA66
:102F80008503436084614D688563026230BD000043
:102F9000002C01400034014030B5056A25F48075ED
:102FA0000562026A4368C46924F0700424F00304D3
:102FB0000D682C4322F400728D6842EA0522124DFE
:102FC000A84200D103E0114DA84207D100BF22F46E
:102FD0000062CD6842EA052222F480620A4DA842CE
:102FE00002D00A4DA84209D123F4805323F40053A0
:102FF0004D6943EA05138D6943EA05134360C461D3
:103000004D68C563026230BD002C014000340140B0
:1030100030B5056A25F480550562036A4468C269C3
:1030200022F4E04222F440720D6842EA052223F4C1
:1030300000538D6843EA0533084DA84202D0084D7D
:10304000A84204D124F480444D6944EA85144460C4
:10305000C2614D680564036230BD0000002C014070
:103060000034014070B505466C6A0020E085E084BC
:103070002046FFF7B5FB70BD0168C96821F4907167
:103080000268D1600168496921F00101026851615B
:10309000202180F83A10704710B504462068C068B7
:1030A00020F040002168C860202084F839002046C4
:1030B000FFF776FD002010BD70B5044694F83A0085
:1030C000222847D1A068B0F5805F0CD1206950B9A3
:1030D0000025A66A20684068C0F308003080A06A16
:1030E000801CA06215E0A56A0026A068B0F5805F8C
:1030F00003D0A06828B9206918B9206840682870F2
:1031000004E02068406800F07F002870A06A401C3E
:10311000A062E08D401E80B2E085C8B92068C0681A
:1031200020F020002168C8602068C06820F480700A
:103130002168C8602068406920F00100216848616A
:10314000202084F83A002046FFF7C2FC002070BD22
:103150000020FCE70220FAE770B5044621680969FF
:1031600021F44051E2681143226811612269A1688B
:103170001143626941EA02052168C96841F20C62A3
:10318000914329432268D1602168496921F4407143
:10319000A2691143226851612D4A2168914202D1EE
:1031A000FEF740FD01E0FEF72DFD00EBC00101EB55
:1031B000001162689200B1FBF2F100EBC00202EB79
:1031C000001263689B00B2FBF3F26423B2FBF3F2DC
:1031D00002EBC20303EB0212A1EB8201322202EBEB
:1031E00001116422B1FBF2F101F0F00100EBC00229
:1031F00002EB001263689B00B2FBF3F26423B2FBA4
:10320000F3F201EB021200EBC00101EB0011636865
:103210009B00B1FBF3F100EBC00303EB0013666806
:10322000B600B3FBF6F36426B3FBF6F303EBC30679
:1032300006EB0313A1EB8301322303EB011164239B
:10324000B1FBF3F101F00F0111442268916070BDF0
:1032500000380140014691F83900212828D18868BA
:10326000B0F5805F0BD1086948B90A6A1088C0F3CD
:1032700008000B685860086A801C086205E00B6A49
:10328000581C086218780B685860C88C401E80B2C1
:10329000C88458B90868C06820F080000B68D860FE
:1032A0000868C06840F040000B68D8600020704794
:1032B0000220FCE710B50648FFF794FA00BF012290
:1032C00004490348FFF7CCFB0028F8D110BD0000EB
:1032D000800200203600002000BFFEE702480068A0
:1032E000C0F30220704700000CED00E010B500288C
:1032F00004DB0A07130E054A135406E00A07140EEE
:10330000034A00F00F031B1FD45410BD00E400E07B
:1033100018ED00E000BF7047FEB507460C461546A5
:103320001E4600940195029669463846FDF748FC12
:10333000FEBD000010B504460723012221460748C0
:10334000FFF7EAFF0548FDF79BFE0A210348FDF75A
:10335000DFFD0248FDF7E4FC80B210BDC002002092
:103360002DE9F04107460C460025002608E03846C6
:10337000FFF7E0FF0544052000F038F8701CC6B2E6
:10338000A642F4DBB5FBF4F0BDE8F08110B50B48C4
:103390000B490860002048600021094881600173E2
:1033A000012101610021017581614FF46021C1613A
:1033B000FDF7BAFC0248FDF781FB10BD0024014077
:1033C000C002002010B5044600204FF0E021086143
:1033D000FEF7B4FE2046E11704EB5171C1F3CF01B3
:1033E000014A118010BD00002C00002070B5044679
:1033F0004FF47A7094FBF0F594FBF0F100FB11466A
:1034000003E0074800F00EF86D1E002DF9D12EB133
:103410004FF47A7106FB01F000F004F870BD000073
:1034200040420F000146114A12884A434FF0E02300
:103430005A6100229A611A46126942F001021A6129
:1034400000BF4FF0E022106900F001021AB100F451
:103450008032002AF5D04FF0E022126922F00102FA
:103460004FF0E0231A6100229A6170472C0000207F
:1034700000BF054A126802F04002002AF9D0C2B229
:10348000014B1B1D1A6070470038014000B585B024
:1034900000BF00BF1E48806940F004001C498861DD
:1034A0000846806900F00400009000BF00BF00BF24
:1034B00000BF00BF0846806940F0040088610846EC
:1034C000806900F00400009000BF00BF00BFC81476
:1034D00001900120029003900320049001A90D485F
:1034E000FDF740FF4020019001A90A48FDF73AFF8F
:1034F00000BF0122D1020748FEF7DCF800BF00BF81
:10350000012240210348FEF7D5F800BF05B000BDF9
:103510000010024000080140FEF7D8F84FF4E01018
:1035200000F094F94820FFF74DFF4FF4E13000F030
:10353000C1F9962240F2CF2140F2CF70FFF7BEFBD7
:10354000FFF7A4FFFFF722FFFFF72EFBFDF766FA58
:1035500000BF012204216F48FEF7ACF800BFFFF75F
:1035600047FB6D480068C06840F001006A4909687F
:10357000C8603C216848FEF7FDFE6FF00100664917
:1035800009680861C5E0FDF76FFA38B16348008843
:1035900008B9012000E00020604908805F480088E9
:1035A000012809D19620FFF7EDFB00BF002204217E
:1035B0005848FEF77FF80AE000BF01220421554871
:1035C000FEF778F800BF56480088FFF7DBFB554848
:1035D0000088A8B95448006830B13C214E48FEF735
:1035E000C9FE0020504908600021504A1160516016
:1035F0004F4A1160516000204749096848622AE03B
:103600004848008801281BD14748006830B13C2158
:103610004148FEF7AFFE002043490860FDF748FA35
:103620000021434A4FF6FF7518CAA3FB052704FB88
:10363000057403FB0143801859413C4A03C20AE068
:1036400038480088022806D13C213348FEF7F8FEAE
:1036500001203549086002210420FFF781FE354929
:1036600008603548008830B900BF01224021294850
:10367000FEF720F80AE030480088012806D100BF94
:10368000002240212348FEF715F800BF2B48008890
:1036900030B900BF0122D1021E48FEF70BF80AE044
:1036A00026480088012806D100BF0022C10219481F
:1036B000FEF700F800BF22480068401C204908605F
:1036C00008460068142824D10020086014480188A6
:1036D0001CA0FCF7B5FD114801881CA0FCF7B0FD4B
:1036E0001548018819A0FCF7ABFD1448018817A004
:1036F000FCF7A6FD0D480CC815A0FCF7A1FD0D4870
:10370000016812A0FCF79CFD0648018812A0FCF796
:1037100097FD38E700080140A800002002000020C3
:1037200000000020080000202000002018000020D9
:10373000100000200C0000200400002006000020E3
:103740002400002023312325642300002564230066
:10375000256C6C642300000025640D0A0000000045
:1037600010B5002004E02B49095C2B4A1154401C81
:10377000C828F8D329A12848FCF77CFE284908600E
:1037800026A10020FCF776FE2549086023A1002031
:10379000FCF770FE2349086020A10020FCF76AFEB8
:1037A000214908601DA10020FCF764FE1F49086044
:1037B0001AA10020FCF75EFE1D49086017A1002039
:1037C000FCF758FE1B49086015480068FCF744FEEA
:1037D0001949088013480068FCF73EFE38B11748C5
:1037E000008808B9012000E00020144908800E4834
:1037F0000068FCF731FE124908800C480068FCF7AD
:103800002BFE104908800A480068FCF725FE0E4987
:10381000088010BDF0000020B80100202300000047
:10382000380000203C000020400000204400002020
:10383000480000204C000020000000200200002072
:1038400004000020060000200800002030B58FB0E2
:1038500005460124282105A8FCF712FE142168461C
:10386000FCF70EFE01200590000406900020079052
:1038700002200C90C1030D910E9505A8FEF72CFABD
:1038800004460CB100BFFEE70F200090022001901B
:10389000002002904FF480600390002004900221E9
:1038A0006846FEF7E3F804460CB100BFFEE70FB030
:1038B00030BD000010B5044609480A4908600846B2
:1038C000446000218160C160016181610C2141611E
:1038D000FFF732F8012204490248FFF7C1F810BD92
:1038E00000380140800200203600002010B5002979
:1038F0000AD00878002807D005487844FCF7E2FF92
:10390000002801D0002010BD0248784410BD0000FE
:10391000560000004E000000000000000000000003
:103920000102030406070809000000000102030465
:10393000603A000800000020600000006C010008F0
:10394000C03A000860000020F0080000880100086C
:103950001001000043000000F8FFFFFF004040405E
:103960004040404040404141414141404040404052
:1039700040404040404040404040404040050202FE
:1039800002020202020202020202020202202020BD
:103990002020202020202002020202020202909019
:1039A0009090909010101010101010101010101017
:1039B000101010101010101002020202020288886B
:1039C0008888888808080808080808080808080877
:1039D000080808080808080802020202400000005F
:1039E00000000000000000000000000000000000D7
:1039F00000000000000000000000000000000000C7
:103A000000000000000000000000000000000000B6
:103A100000000000000000000000000000000000A6
:103A20000000000000000000000000000000000096
:103A30000000000000000000000000000000000086
:103A40000000000000000000000000000000000076
:103A50000000000000000000000000000000000066
:103A600096000000000000000100000000000000BF
:103A7000FFFFFFFFFFFFFFFF00000000000000004E
:103A800000000000000000000024F400000000001E
:103A90000000000000000000000000000000000026
:103AA0000000000000000000000000000000000016
:103AB00000000000100000000100000000000000F5
:0400000508000131BD
:00000001FF
